{
  "contractName": "SupplyChain",
  "abi": [
    {
      "anonymous": false,
      "inputs": [
        {
          "indexed": false,
          "internalType": "uint256",
          "name": "id",
          "type": "uint256"
        },
        {
          "indexed": false,
          "internalType": "string",
          "name": "name",
          "type": "string"
        },
        {
          "indexed": false,
          "internalType": "string",
          "name": "location",
          "type": "string"
        }
      ],
      "name": "ProductAdded",
      "type": "event"
    },
    {
      "inputs": [],
      "name": "productCount",
      "outputs": [
        {
          "internalType": "uint256",
          "name": "",
          "type": "uint256"
        }
      ],
      "stateMutability": "view",
      "type": "function",
      "constant": true
    },
    {
      "inputs": [
        {
          "internalType": "uint256",
          "name": "",
          "type": "uint256"
        }
      ],
      "name": "products",
      "outputs": [
        {
          "internalType": "uint256",
          "name": "id",
          "type": "uint256"
        },
        {
          "internalType": "string",
          "name": "name",
          "type": "string"
        },
        {
          "internalType": "string",
          "name": "location",
          "type": "string"
        },
        {
          "internalType": "bool",
          "name": "isDelivered",
          "type": "bool"
        }
      ],
      "stateMutability": "view",
      "type": "function",
      "constant": true
    },
    {
      "inputs": [
        {
          "internalType": "string",
          "name": "_name",
          "type": "string"
        },
        {
          "internalType": "string",
          "name": "_location",
          "type": "string"
        }
      ],
      "name": "addProduct",
      "outputs": [],
      "stateMutability": "nonpayable",
      "type": "function"
    },
    {
      "inputs": [
        {
          "internalType": "uint256",
          "name": "_id",
          "type": "uint256"
        }
      ],
      "name": "markAsDelivered",
      "outputs": [],
      "stateMutability": "nonpayable",
      "type": "function"
    }
  ],
  "bytecode": "0x6080604052600060015534801561001557600080fd5b50610662806100256000396000f3fe608060405234801561001057600080fd5b506004361061004c5760003560e01c80637acc0b2014610051578063968ee6ed1461007d578063ca2efb5514610092578063e0f6ef87146100a5575b600080fd5b61006461005f3660046104a8565b6100ba565b6040516100749493929190610575565b60405180910390f35b61009061008b3660046104a8565b6101f6565b005b6100906100a0366004610447565b61024b565b6100ad610327565b6040516100749190610537565b600060208190529081526040902080546001820180549192916100dc906105b4565b80601f0160208091040260200160405190810160405280929190818152602001828054610108906105b4565b80156101555780601f1061012a57610100808354040283529160200191610155565b820191906000526020600020905b81548152906001019060200180831161013857829003601f168201915b50505050509080600201805461016a906105b4565b80601f0160208091040260200160405190810160405280929190818152602001828054610196906105b4565b80156101e35780601f106101b8576101008083540402835291602001916101e3565b820191906000526020600020905b8154815290600101906020018083116101c657829003601f168201915b5050506003909301549192505060ff1684565b6000818152602081905260409020811580159061021557506001548211155b61023a5760405162461bcd60e51b81526004016102319061050b565b60405180910390fd5b600301805460ff1916600117905550565b6001805490600061025b836105ef565b9091555050604080516080810182526001805480835260208084018781528486018790526000606086018190529283528282529490912083518155935180519394936102ae93850192919091019061032d565b50604082015180516102ca91600284019160209091019061032d565b50606091909101516003909101805460ff19169115159190911790556001546040517fb0b1b5b61bc0dbb800dfdecd756ac304fe33d3a63c2ac5dc419452555c99a8299161031b9185908590610540565b60405180910390a15050565b60015481565b828054610339906105b4565b90600052602060002090601f01602090048101928261035b57600085556103a1565b82601f1061037457805160ff19168380011785556103a1565b828001600101855582156103a1579182015b828111156103a1578251825591602001919060010190610386565b506103ad9291506103b1565b5090565b5b808211156103ad57600081556001016103b2565b600082601f8301126103d6578081fd5b813567ffffffffffffffff808211156103f1576103f1610616565b604051601f8301601f19168101602001828111828210171561041557610415610616565b60405282815284830160200186101561042c578384fd5b82602086016020830137918201602001929092529392505050565b60008060408385031215610459578182fd5b823567ffffffffffffffff80821115610470578384fd5b61047c868387016103c6565b93506020850135915080821115610491578283fd5b5061049e858286016103c6565b9150509250929050565b6000602082840312156104b9578081fd5b5035919050565b60008151808452815b818110156104e5576020818501810151868301820152016104c9565b818111156104f65782602083870101525b50601f01601f19169290920160200192915050565b602080825260129082015271125b9d985b1a59081c1c9bd91d58dd08125160721b604082015260600190565b90815260200190565b60008482526060602083015261055960608301856104c0565b828103604084015261056b81856104c0565b9695505050505050565b60008582526080602083015261058e60808301866104c0565b82810360408401526105a081866104c0565b915050821515606083015295945050505050565b6002810460018216806105c857607f821691505b602082108114156105e957634e487b7160e01b600052602260045260246000fd5b50919050565b600060001982141561060f57634e487b7160e01b81526011600452602481fd5b5060010190565b634e487b7160e01b600052604160045260246000fdfea2646970667358221220f3fb8174e3b487728b3f3c7ca0a687a03241fd21cef58bb2ac2ac1c54e64365e64736f6c63430008000033",
  "immutableReferences": {},
  "source": "// SPDX-License-Identifier: MIT\r\npragma solidity ^0.8.0;\r\n\r\ncontract SupplyChain {\r\n    struct Product {\r\n        uint256 id;\r\n        string name;\r\n        string location;\r\n        bool isDelivered;\r\n    }\r\n\r\n    mapping(uint256 => Product) public products;\r\n    uint256 public productCount = 0;\r\n\r\n    event ProductAdded(uint256 id, string name, string location);\r\n\r\n    function addProduct(string memory _name, string memory _location) public {\r\n        productCount++;\r\n        products[productCount] = Product(productCount, _name, _location, false);\r\n        emit ProductAdded(productCount, _name, _location);\r\n    }\r\n\r\n    function markAsDelivered(uint256 _id) public {\r\n        Product storage product = products[_id];\r\n        require(_id > 0 && _id <= productCount, \"Invalid product ID\");\r\n        product.isDelivered = true;\r\n    }\r\n}\r\n",
  "sourcePath": "C:\\Users\\NIMISH\\SupplyChainProject\\contracts\\SupplyChain.sol",
  "compiler": {
    "name": "solc",
    "version": "0.8.0+commit.c7dfd78e.Emscripten.clang"
  },
  "schemaVersion": "3.4.16",
  "updatedAt": "2024-12-08T07:20:39.649Z",
  "networkType": "ethereum",
  "devdoc": {
    "kind": "dev",
    "methods": {},
    "version": 1
  },
  "userdoc": {
    "kind": "user",
    "methods": {},
    "version": 1
  }
}